{
  "contractName": "GetPair",
  "abi": [
    {
      "inputs": [
        {
          "internalType": "address",
          "name": "factory",
          "type": "address"
        },
        {
          "internalType": "address",
          "name": "tokenA",
          "type": "address"
        },
        {
          "internalType": "address",
          "name": "tokenB",
          "type": "address"
        }
      ],
      "name": "getReserves",
      "outputs": [
        {
          "internalType": "uint256",
          "name": "reserveA",
          "type": "uint256"
        },
        {
          "internalType": "uint256",
          "name": "reserveB",
          "type": "uint256"
        }
      ],
      "stateMutability": "view",
      "type": "function"
    }
  ],
  "bytecode": "0x608060405234801561001057600080fd5b5061019a806100206000396000f3fe608060405234801561001057600080fd5b506004361061002b5760003560e01c80633274946114610030575b600080fd5b61004a600480360381019061004591906100cf565b610061565b60405161005892919061013b565b60405180910390f35b600080935093915050565b600080fd5b600073ffffffffffffffffffffffffffffffffffffffff82169050919050565b600061009c82610071565b9050919050565b6100ac81610091565b81146100b757600080fd5b50565b6000813590506100c9816100a3565b92915050565b6000806000606084860312156100e8576100e761006c565b5b60006100f6868287016100ba565b9350506020610107868287016100ba565b9250506040610118868287016100ba565b9150509250925092565b6000819050919050565b61013581610122565b82525050565b6000604082019050610150600083018561012c565b61015d602083018461012c565b939250505056fea264697066735822122066d6f417a943dbdacc39a0ea646ef52e4e5891cd822cf81ec39623fae0bb530864736f6c63430008110033",
  "immutableReferences": {},
  "source": "// SPDX-License-Identifier: MIT\r\npragma solidity ^0.8.0;\r\n\r\ncontract GetPair {\r\n    function getReserves(\r\n        address factory,\r\n        address tokenA,\r\n        address tokenB\r\n    ) external view returns (uint256 reserveA, uint256 reserveB) {}\r\n}\r\n",
  "sourcePath": "C:\\Users\\Vhits\\OneDrive\\Desktop\\projects\\Milkshake\\truffleTest\\contracts\\GetPair.sol",
  "compiler": {
    "name": "solc",
    "version": "0.8.17+commit.8df45f5f.Emscripten.clang"
  },
  "schemaVersion": "3.4.11",
  "updatedAt": "2022-12-12T11:43:08.820Z",
  "devdoc": {
    "kind": "dev",
    "methods": {},
    "version": 1
  },
  "userdoc": {
    "kind": "user",
    "methods": {},
    "version": 1
  }
}