{
  "contractName": "Pair",
  "abi": [
    {
      "inputs": [
        {
          "internalType": "address",
          "name": "owner",
          "type": "address"
        }
      ],
      "name": "balanceOf",
      "outputs": [
        {
          "internalType": "uint256",
          "name": "",
          "type": "uint256"
        }
      ],
      "stateMutability": "view",
      "type": "function"
    }
  ],
  "bytecode": "0x608060405234801561001057600080fd5b50610161806100206000396000f3fe608060405234801561001057600080fd5b506004361061002b5760003560e01c806370a0823114610030575b600080fd5b61004a600480360381019061004591906100ca565b610060565b6040516100579190610110565b60405180910390f35b6000919050565b600080fd5b600073ffffffffffffffffffffffffffffffffffffffff82169050919050565b60006100978261006c565b9050919050565b6100a78161008c565b81146100b257600080fd5b50565b6000813590506100c48161009e565b92915050565b6000602082840312156100e0576100df610067565b5b60006100ee848285016100b5565b91505092915050565b6000819050919050565b61010a816100f7565b82525050565b60006020820190506101256000830184610101565b9291505056fea264697066735822122016a2a26d7436a08e6803a3a8470e88e772bc96c8c436a2674ca59f785a4137ee64736f6c63430008110033",
  "immutableReferences": {},
  "source": "// SPDX-License-Identifier: MIT\r\n\r\npragma solidity ^0.8.0;\r\n\r\ncontract Pair {\r\n    function balanceOf(address owner) external view returns (uint256) {}\r\n}\r\n",
  "sourcePath": "C:\\Users\\Vhits\\OneDrive\\Desktop\\projects\\Milkshake\\truffleTest\\contracts\\Pair.sol",
  "compiler": {
    "name": "solc",
    "version": "0.8.17+commit.8df45f5f.Emscripten.clang"
  },
  "schemaVersion": "3.4.11",
  "updatedAt": "2022-12-12T11:43:08.855Z",
  "devdoc": {
    "kind": "dev",
    "methods": {},
    "version": 1
  },
  "userdoc": {
    "kind": "user",
    "methods": {},
    "version": 1
  }
}