{
  "contractName": "RemoveLiquidityContract",
  "abi": [
    {
      "inputs": [
        {
          "internalType": "address",
          "name": "tokenA",
          "type": "address"
        },
        {
          "internalType": "address",
          "name": "tokenB",
          "type": "address"
        },
        {
          "internalType": "uint256",
          "name": "liquidity",
          "type": "uint256"
        },
        {
          "internalType": "uint256",
          "name": "amountAMin",
          "type": "uint256"
        },
        {
          "internalType": "uint256",
          "name": "amountBMin",
          "type": "uint256"
        },
        {
          "internalType": "address",
          "name": "to",
          "type": "address"
        },
        {
          "internalType": "uint256",
          "name": "deadline",
          "type": "uint256"
        }
      ],
      "name": "removeLiquidity",
      "outputs": [
        {
          "internalType": "uint256",
          "name": "amountA",
          "type": "uint256"
        },
        {
          "internalType": "uint256",
          "name": "amountB",
          "type": "uint256"
        }
      ],
      "stateMutability": "nonpayable",
      "type": "function"
    },
    {
      "inputs": [
        {
          "internalType": "address",
          "name": "token",
          "type": "address"
        },
        {
          "internalType": "uint256",
          "name": "liquidity",
          "type": "uint256"
        },
        {
          "internalType": "uint256",
          "name": "amountTokenMin",
          "type": "uint256"
        },
        {
          "internalType": "uint256",
          "name": "amountETHMin",
          "type": "uint256"
        },
        {
          "internalType": "address",
          "name": "to",
          "type": "address"
        },
        {
          "internalType": "uint256",
          "name": "deadline",
          "type": "uint256"
        }
      ],
      "name": "removeLiquidityETH",
      "outputs": [
        {
          "internalType": "uint256",
          "name": "amountToken",
          "type": "uint256"
        },
        {
          "internalType": "uint256",
          "name": "amountETH",
          "type": "uint256"
        }
      ],
      "stateMutability": "nonpayable",
      "type": "function"
    },
    {
      "inputs": [
        {
          "internalType": "address",
          "name": "tokenA",
          "type": "address"
        },
        {
          "internalType": "address",
          "name": "tokenB",
          "type": "address"
        },
        {
          "internalType": "uint256",
          "name": "liquidity",
          "type": "uint256"
        },
        {
          "internalType": "uint256",
          "name": "amountAMin",
          "type": "uint256"
        },
        {
          "internalType": "uint256",
          "name": "amountBMin",
          "type": "uint256"
        },
        {
          "internalType": "address",
          "name": "to",
          "type": "address"
        },
        {
          "internalType": "uint256",
          "name": "deadline",
          "type": "uint256"
        },
        {
          "internalType": "bool",
          "name": "approveMax",
          "type": "bool"
        },
        {
          "internalType": "uint8",
          "name": "v",
          "type": "uint8"
        },
        {
          "internalType": "bytes32",
          "name": "r",
          "type": "bytes32"
        },
        {
          "internalType": "bytes32",
          "name": "s",
          "type": "bytes32"
        }
      ],
      "name": "removeLiquidityWithPermit",
      "outputs": [
        {
          "internalType": "uint256",
          "name": "amountA",
          "type": "uint256"
        },
        {
          "internalType": "uint256",
          "name": "amountB",
          "type": "uint256"
        }
      ],
      "stateMutability": "nonpayable",
      "type": "function"
    },
    {
      "inputs": [
        {
          "internalType": "address",
          "name": "token",
          "type": "address"
        },
        {
          "internalType": "uint256",
          "name": "liquidity",
          "type": "uint256"
        },
        {
          "internalType": "uint256",
          "name": "amountTokenMin",
          "type": "uint256"
        },
        {
          "internalType": "uint256",
          "name": "amountETHMin",
          "type": "uint256"
        },
        {
          "internalType": "address",
          "name": "to",
          "type": "address"
        },
        {
          "internalType": "uint256",
          "name": "deadline",
          "type": "uint256"
        },
        {
          "internalType": "bool",
          "name": "approveMax",
          "type": "bool"
        },
        {
          "internalType": "uint8",
          "name": "v",
          "type": "uint8"
        },
        {
          "internalType": "bytes32",
          "name": "r",
          "type": "bytes32"
        },
        {
          "internalType": "bytes32",
          "name": "s",
          "type": "bytes32"
        }
      ],
      "name": "removeLiquidityETHWithPermit",
      "outputs": [
        {
          "internalType": "uint256",
          "name": "amountToken",
          "type": "uint256"
        },
        {
          "internalType": "uint256",
          "name": "amountETH",
          "type": "uint256"
        }
      ],
      "stateMutability": "nonpayable",
      "type": "function"
    }
  ],
  "bytecode": "0x608060405234801561001057600080fd5b50610607806100206000396000f3fe608060405234801561001057600080fd5b506004361061004c5760003560e01c806302751cec146100515780632195995c14610082578063baa2abde146100b3578063ded9382a146100e4575b600080fd5b61006b600480360381019061006691906101f0565b610115565b60405161007992919061028c565b60405180910390f35b61009c6004803603810190610097919061035c565b610123565b6040516100aa92919061028c565b60405180910390f35b6100cd60048036038101906100c89190610450565b610136565b6040516100db92919061028c565b60405180910390f35b6100fe60048036038101906100f991906104f2565b610145565b60405161010c92919061028c565b60405180910390f35b600080965096945050505050565b6000809b509b9950505050505050505050565b60008097509795505050505050565b6000809a509a98505050505050505050565b600080fd5b600073ffffffffffffffffffffffffffffffffffffffff82169050919050565b60006101878261015c565b9050919050565b6101978161017c565b81146101a257600080fd5b50565b6000813590506101b48161018e565b92915050565b6000819050919050565b6101cd816101ba565b81146101d857600080fd5b50565b6000813590506101ea816101c4565b92915050565b60008060008060008060c0878903121561020d5761020c610157565b5b600061021b89828a016101a5565b965050602061022c89828a016101db565b955050604061023d89828a016101db565b945050606061024e89828a016101db565b935050608061025f89828a016101a5565b92505060a061027089828a016101db565b9150509295509295509295565b610286816101ba565b82525050565b60006040820190506102a1600083018561027d565b6102ae602083018461027d565b9392505050565b60008115159050919050565b6102ca816102b5565b81146102d557600080fd5b50565b6000813590506102e7816102c1565b92915050565b600060ff82169050919050565b610303816102ed565b811461030e57600080fd5b50565b600081359050610320816102fa565b92915050565b6000819050919050565b61033981610326565b811461034457600080fd5b50565b60008135905061035681610330565b92915050565b60008060008060008060008060008060006101608c8e03121561038257610381610157565b5b60006103908e828f016101a5565b9b505060206103a18e828f016101a5565b9a505060406103b28e828f016101db565b99505060606103c38e828f016101db565b98505060806103d48e828f016101db565b97505060a06103e58e828f016101a5565b96505060c06103f68e828f016101db565b95505060e06104078e828f016102d8565b9450506101006104198e828f01610311565b93505061012061042b8e828f01610347565b92505061014061043d8e828f01610347565b9150509295989b509295989b9093969950565b600080600080600080600060e0888a03121561046f5761046e610157565b5b600061047d8a828b016101a5565b975050602061048e8a828b016101a5565b965050604061049f8a828b016101db565b95505060606104b08a828b016101db565b94505060806104c18a828b016101db565b93505060a06104d28a828b016101a5565b92505060c06104e38a828b016101db565b91505092959891949750929550565b6000806000806000806000806000806101408b8d03121561051657610515610157565b5b60006105248d828e016101a5565b9a505060206105358d828e016101db565b99505060406105468d828e016101db565b98505060606105578d828e016101db565b97505060806105688d828e016101a5565b96505060a06105798d828e016101db565b95505060c061058a8d828e016102d8565b94505060e061059b8d828e01610311565b9350506101006105ad8d828e01610347565b9250506101206105bf8d828e01610347565b9150509295989b9194979a509295985056fea26469706673582212202635de4316b5c5d24915005b8cbedf07f24e29bcd587307c65cf279adf4f65f164736f6c63430008110033",
  "immutableReferences": {},
  "source": "// SPDX-License-Identifier: MIT\r\npragma solidity ^0.8.0;\r\n\r\ncontract RemoveLiquidityContract {\r\n    function removeLiquidity(\r\n        address tokenA,\r\n        address tokenB,\r\n        uint256 liquidity,\r\n        uint256 amountAMin,\r\n        uint256 amountBMin,\r\n        address to,\r\n        uint256 deadline\r\n    ) external returns (uint256 amountA, uint256 amountB) {}\r\n\r\n    function removeLiquidityETH(\r\n        address token,\r\n        uint256 liquidity,\r\n        uint256 amountTokenMin,\r\n        uint256 amountETHMin,\r\n        address to,\r\n        uint256 deadline\r\n    ) external returns (uint256 amountToken, uint256 amountETH) {}\r\n\r\n    function removeLiquidityWithPermit(\r\n        address tokenA,\r\n        address tokenB,\r\n        uint256 liquidity,\r\n        uint256 amountAMin,\r\n        uint256 amountBMin,\r\n        address to,\r\n        uint256 deadline,\r\n        bool approveMax,\r\n        uint8 v,\r\n        bytes32 r,\r\n        bytes32 s\r\n    ) external returns (uint256 amountA, uint256 amountB) {}\r\n\r\n    function removeLiquidityETHWithPermit(\r\n        address token,\r\n        uint256 liquidity,\r\n        uint256 amountTokenMin,\r\n        uint256 amountETHMin,\r\n        address to,\r\n        uint256 deadline,\r\n        bool approveMax,\r\n        uint8 v,\r\n        bytes32 r,\r\n        bytes32 s\r\n    ) external returns (uint256 amountToken, uint256 amountETH) {}\r\n}\r\n",
  "sourcePath": "C:\\Users\\Vhits\\OneDrive\\Desktop\\projects\\Milkshake\\truffleTest\\contracts\\RemoveLiquidityContract.sol",
  "compiler": {
    "name": "solc",
    "version": "0.8.17+commit.8df45f5f.Emscripten.clang"
  },
  "schemaVersion": "3.4.11",
  "updatedAt": "2022-12-12T11:43:08.858Z",
  "devdoc": {
    "kind": "dev",
    "methods": {},
    "version": 1
  },
  "userdoc": {
    "kind": "user",
    "methods": {},
    "version": 1
  }
}