{
  "contractName": "Router",
  "abi": [
    {
      "inputs": [
        {
          "internalType": "address",
          "name": "tokenA",
          "type": "address"
        },
        {
          "internalType": "address",
          "name": "tokenB",
          "type": "address"
        },
        {
          "internalType": "uint256",
          "name": "amountADesired",
          "type": "uint256"
        },
        {
          "internalType": "uint256",
          "name": "amountBDesired",
          "type": "uint256"
        },
        {
          "internalType": "uint256",
          "name": "amountAMin",
          "type": "uint256"
        },
        {
          "internalType": "uint256",
          "name": "amountBMin",
          "type": "uint256"
        },
        {
          "internalType": "address",
          "name": "to",
          "type": "address"
        },
        {
          "internalType": "uint256",
          "name": "deadline",
          "type": "uint256"
        }
      ],
      "name": "addLiquidity",
      "outputs": [
        {
          "internalType": "uint256",
          "name": "amountA",
          "type": "uint256"
        },
        {
          "internalType": "uint256",
          "name": "amountB",
          "type": "uint256"
        },
        {
          "internalType": "uint256",
          "name": "liquidity",
          "type": "uint256"
        }
      ],
      "stateMutability": "nonpayable",
      "type": "function"
    }
  ],
  "bytecode": "0x608060405234801561001057600080fd5b50610240806100206000396000f3fe608060405234801561001057600080fd5b506004361061002b5760003560e01c8063e8e3370014610030575b600080fd5b61004a6004803603810190610045919061010e565b610062565b604051610059939291906101d3565b60405180910390f35b6000806000985098509895505050505050565b600080fd5b600073ffffffffffffffffffffffffffffffffffffffff82169050919050565b60006100a58261007a565b9050919050565b6100b58161009a565b81146100c057600080fd5b50565b6000813590506100d2816100ac565b92915050565b6000819050919050565b6100eb816100d8565b81146100f657600080fd5b50565b600081359050610108816100e2565b92915050565b600080600080600080600080610100898b03121561012f5761012e610075565b5b600061013d8b828c016100c3565b985050602061014e8b828c016100c3565b975050604061015f8b828c016100f9565b96505060606101708b828c016100f9565b95505060806101818b828c016100f9565b94505060a06101928b828c016100f9565b93505060c06101a38b828c016100c3565b92505060e06101b48b828c016100f9565b9150509295985092959890939650565b6101cd816100d8565b82525050565b60006060820190506101e860008301866101c4565b6101f560208301856101c4565b61020260408301846101c4565b94935050505056fea264697066735822122083d7a8166b43a013ee27e37679b1e7ead19b037a609a136c99c2f39bee885f8664736f6c63430008110033",
  "immutableReferences": {},
  "source": "// SPDX-License-Identifier: MIT\r\npragma solidity ^0.8.0;\r\n\r\ncontract Router {\r\n  function addLiquidity(\r\n   address tokenA,\r\n   address tokenB,\r\n   uint amountADesired,\r\n   uint amountBDesired,\r\n   uint amountAMin,\r\n   uint amountBMin,\r\n   address to,\r\n   uint deadline\r\n  ) external returns(uint amountA, uint amountB, uint liquidity) {}\r\n}",
  "sourcePath": "C:\\Users\\Vhits\\OneDrive\\Desktop\\projects\\Milkshake\\truffleTest\\contracts\\Router.sol",
  "compiler": {
    "name": "solc",
    "version": "0.8.17+commit.8df45f5f.Emscripten.clang"
  },
  "schemaVersion": "3.4.11",
  "updatedAt": "2022-12-12T11:43:08.881Z",
  "devdoc": {
    "kind": "dev",
    "methods": {},
    "version": 1
  },
  "userdoc": {
    "kind": "user",
    "methods": {},
    "version": 1
  }
}